{
  "contractName": "Mortal",
  "abi": [
    {
      "constant": true,
      "inputs": [],
      "name": "owner",
      "outputs": [
        {
          "name": "",
          "type": "address"
        }
      ],
      "payable": false,
      "stateMutability": "view",
      "type": "function"
    },
    {
      "constant": false,
      "inputs": [
        {
          "name": "_newOwner",
          "type": "address"
        }
      ],
      "name": "changeOwner",
      "outputs": [],
      "payable": false,
      "stateMutability": "nonpayable",
      "type": "function"
    },
    {
      "constant": false,
      "inputs": [],
      "name": "kill",
      "outputs": [],
      "payable": false,
      "stateMutability": "nonpayable",
      "type": "function"
    }
  ],
  "bytecode": "0x6080604052336000806101000a81548173ffffffffffffffffffffffffffffffffffffffff021916908373ffffffffffffffffffffffffffffffffffffffff1602179055506104b6806100536000396000f300608060405260043610610057576000357c0100000000000000000000000000000000000000000000000000000000900463ffffffff16806341c0e1b51461005c5780638da5cb5b14610073578063a6f9dae1146100ca575b600080fd5b34801561006857600080fd5b5061007161010d565b005b34801561007f57600080fd5b506100886102cf565b604051808273ffffffffffffffffffffffffffffffffffffffff1673ffffffffffffffffffffffffffffffffffffffff16815260200191505060405180910390f35b3480156100d657600080fd5b5061010b600480360381019080803573ffffffffffffffffffffffffffffffffffffffff1690602001909291905050506102f4565b005b6000809054906101000a900473ffffffffffffffffffffffffffffffffffffffff1673ffffffffffffffffffffffffffffffffffffffff163373ffffffffffffffffffffffffffffffffffffffff161415156101d1576040517f08c379a00000000000000000000000000000000000000000000000000000000081526004018080602001828103825260178152602001807f6d73672073656e646572206973206e6f74206f776e657200000000000000000081525060200191505060405180910390fd5b6000809054906101000a900473ffffffffffffffffffffffffffffffffffffffff1673ffffffffffffffffffffffffffffffffffffffff163373ffffffffffffffffffffffffffffffffffffffff16141515610295576040517f08c379a000000000000000000000000000000000000000000000000000000000815260040180806020018281038252601b8152602001807f6d6573736167652073656e646572206973206e6f74206f776e6572000000000081525060200191505060405180910390fd5b6000809054906101000a900473ffffffffffffffffffffffffffffffffffffffff1673ffffffffffffffffffffffffffffffffffffffff16ff5b6000809054906101000a900473ffffffffffffffffffffffffffffffffffffffff1681565b6000809054906101000a900473ffffffffffffffffffffffffffffffffffffffff1673ffffffffffffffffffffffffffffffffffffffff163373ffffffffffffffffffffffffffffffffffffffff161415156103b8576040517f08c379a00000000000000000000000000000000000000000000000000000000081526004018080602001828103825260178152602001807f6d73672073656e646572206973206e6f74206f776e657200000000000000000081525060200191505060405180910390fd5b60008173ffffffffffffffffffffffffffffffffffffffff1614151515610447576040517f08c379a00000000000000000000000000000000000000000000000000000000081526004018080602001828103825260158152602001807f616464726573732063616e6e6f7420626520307830000000000000000000000081525060200191505060405180910390fd5b806000806101000a81548173ffffffffffffffffffffffffffffffffffffffff021916908373ffffffffffffffffffffffffffffffffffffffff160217905550505600a165627a7a7230582052d17a5a3197783e4c204bc645f46a1b738f273f2824174b5f0934293fbd16ad0029",
  "source": "pragma solidity ^0.4.22;\r\n\r\n\r\n// Owned contract to assign a owner at the time of deployment\r\ncontract Owned {\r\n    \r\n    address public owner;\r\n\r\n    // Modifier to check if the sender is owner    \r\n    modifier onlyOwner(){\r\n        require(msg.sender == owner, \"msg sender is not owner\");\r\n        _;\r\n    }\r\n   \r\n    constructor() public {\r\n        owner = msg.sender;\r\n    }\r\n\r\n    // function to change the owner of the contract\r\n    function changeOwner(address _newOwner) public\r\n    onlyOwner \r\n    {\r\n        require(_newOwner != 0x0,\"address cannot be 0x0\");\r\n        owner = _newOwner;\r\n    }\r\n\r\n}\r\n\r\n\r\n//Mortal contract\r\ncontract Mortal is Owned {\r\n    \r\n    // Kill funtion to destroy the contract. \r\n    // It transfers the balance in the smart contract to the owner account if any. \r\n    function kill() public \r\n    onlyOwner{\r\n        require(msg.sender == owner,\"message sender is not owner\");\r\n        selfdestruct(owner);\r\n    }\r\n    \r\n}",
  "sourcePath": "C:\\Users\\santo\\Documents\\git\\proof-of-existence-dapp\\contracts\\Mortal.sol",
  "compiler": {
    "name": "solc",
    "version": "0.4.24+commit.e67f0147.Emscripten.clang"
  },
  "schemaVersion": "2.0.1",
  "updatedAt": "2018-08-26T04:23:16.550Z"
}