{
  "contractName": "ProofDB",
  "abi": [
    {
      "constant": false,
      "inputs": [],
      "name": "kill",
      "outputs": [],
      "payable": false,
      "stateMutability": "nonpayable",
      "type": "function"
    },
    {
      "constant": true,
      "inputs": [],
      "name": "stopped",
      "outputs": [
        {
          "name": "",
          "type": "bool"
        }
      ],
      "payable": false,
      "stateMutability": "view",
      "type": "function"
    },
    {
      "constant": true,
      "inputs": [],
      "name": "owner",
      "outputs": [
        {
          "name": "",
          "type": "address"
        }
      ],
      "payable": false,
      "stateMutability": "view",
      "type": "function"
    },
    {
      "constant": true,
      "inputs": [
        {
          "name": "",
          "type": "uint256"
        }
      ],
      "name": "allowedContractsKeys",
      "outputs": [
        {
          "name": "",
          "type": "address"
        }
      ],
      "payable": false,
      "stateMutability": "view",
      "type": "function"
    },
    {
      "constant": false,
      "inputs": [
        {
          "name": "_newOwner",
          "type": "address"
        }
      ],
      "name": "changeOwner",
      "outputs": [],
      "payable": false,
      "stateMutability": "nonpayable",
      "type": "function"
    },
    {
      "payable": true,
      "stateMutability": "payable",
      "type": "fallback"
    },
    {
      "anonymous": false,
      "inputs": [
        {
          "indexed": false,
          "name": "_senderaddr",
          "type": "address"
        },
        {
          "indexed": false,
          "name": "_value",
          "type": "uint256"
        }
      ],
      "name": "LogFallback",
      "type": "event"
    },
    {
      "constant": false,
      "inputs": [],
      "name": "toggleContractActive",
      "outputs": [],
      "payable": false,
      "stateMutability": "nonpayable",
      "type": "function"
    },
    {
      "constant": false,
      "inputs": [
        {
          "name": "_addr",
          "type": "address"
        }
      ],
      "name": "addAllowedContractOrOwner",
      "outputs": [
        {
          "name": "",
          "type": "bool"
        }
      ],
      "payable": false,
      "stateMutability": "nonpayable",
      "type": "function"
    },
    {
      "constant": true,
      "inputs": [
        {
          "name": "_addr",
          "type": "address"
        }
      ],
      "name": "isAllowedContractOrOwner",
      "outputs": [
        {
          "name": "",
          "type": "bool"
        }
      ],
      "payable": false,
      "stateMutability": "view",
      "type": "function"
    },
    {
      "constant": false,
      "inputs": [
        {
          "name": "caller",
          "type": "address"
        },
        {
          "name": "_docHash",
          "type": "bytes32"
        },
        {
          "name": "_userName",
          "type": "bytes32"
        },
        {
          "name": "_ipfsHash",
          "type": "bytes"
        },
        {
          "name": "_docTags",
          "type": "bytes"
        }
      ],
      "name": "addDocument",
      "outputs": [
        {
          "name": "",
          "type": "bool"
        }
      ],
      "payable": false,
      "stateMutability": "nonpayable",
      "type": "function"
    },
    {
      "constant": true,
      "inputs": [
        {
          "name": "caller",
          "type": "address"
        },
        {
          "name": "_docHash",
          "type": "bytes32"
        }
      ],
      "name": "getDocument",
      "outputs": [
        {
          "name": "",
          "type": "bytes32"
        },
        {
          "name": "",
          "type": "bytes32"
        },
        {
          "name": "",
          "type": "uint256"
        },
        {
          "name": "",
          "type": "bytes"
        },
        {
          "name": "",
          "type": "bytes"
        }
      ],
      "payable": false,
      "stateMutability": "view",
      "type": "function"
    },
    {
      "constant": true,
      "inputs": [
        {
          "name": "caller",
          "type": "address"
        }
      ],
      "name": "fetchAllDocuments",
      "outputs": [
        {
          "name": "",
          "type": "bytes32[]"
        }
      ],
      "payable": false,
      "stateMutability": "view",
      "type": "function"
    },
    {
      "constant": true,
      "inputs": [],
      "name": "checkBalance",
      "outputs": [
        {
          "name": "",
          "type": "uint256"
        }
      ],
      "payable": false,
      "stateMutability": "view",
      "type": "function"
    },
    {
      "constant": false,
      "inputs": [],
      "name": "withdrawFunds",
      "outputs": [
        {
          "name": "",
          "type": "bool"
        }
      ],
      "payable": false,
      "stateMutability": "nonpayable",
      "type": "function"
    }
  ],
  "bytecode": "0x60806040526000600660006101000a81548160ff021916908315150217905550336000806101000a81548173ffffffffffffffffffffffffffffffffffffffff021916908373ffffffffffffffffffffffffffffffffffffffff1602179055506115bc8061006e6000396000f3006080604052600436106100c5576000357c0100000000000000000000000000000000000000000000000000000000900463ffffffff168063028993ba146101ad5780631385d24c146102085780631dc458c11461021f57806324600fc31461037a57806341c0e1b5146103a957806375f12b21146103c05780638da5cb5b146103ef578063a111c91114610446578063a6f9dae1146104b3578063b4659ad5146104f6578063c71daccb146105f9578063cf6dbb8714610624578063d8b4cc70146106bc575b600080369050141515610140576040517f08c379a000000000000000000000000000000000000000000000000000000000815260040180806020018281038252601a8152602001807f4d657373616765204c656e677468206973206e6f74207a65726f00000000000081525060200191505060405180910390fd5b7fc04e16d4878a87a7d627a5fb8c387ac4a2169e45f86d1935cc739c196c8a57153334604051808373ffffffffffffffffffffffffffffffffffffffff1673ffffffffffffffffffffffffffffffffffffffff1681526020018281526020019250505060405180910390a1005b3480156101b957600080fd5b506101ee600480360381019080803573ffffffffffffffffffffffffffffffffffffffff169060200190929190505050610717565b604051808215151515815260200191505060405180910390f35b34801561021457600080fd5b5061021d61076d565b005b34801561022b57600080fd5b5061026e600480360381019080803573ffffffffffffffffffffffffffffffffffffffff169060200190929190803560001916906020019092919050505061085d565b60405180866000191660001916815260200185600019166000191681526020018481526020018060200180602001838103835285818151815260200191508051906020019080838360005b838110156102d45780820151818401526020810190506102b9565b50505050905090810190601f1680156103015780820380516001836020036101000a031916815260200191505b50838103825284818151815260200191508051906020019080838360005b8381101561033a57808201518184015260208101905061031f565b50505050905090810190601f1680156103675780820380516001836020036101000a031916815260200191505b5097505050505050505060405180910390f35b34801561038657600080fd5b5061038f610aa7565b604051808215151515815260200191505060405180910390f35b3480156103b557600080fd5b506103be610bed565b005b3480156103cc57600080fd5b506103d5610daf565b604051808215151515815260200191505060405180910390f35b3480156103fb57600080fd5b50610404610dc2565b604051808273ffffffffffffffffffffffffffffffffffffffff1673ffffffffffffffffffffffffffffffffffffffff16815260200191505060405180910390f35b34801561045257600080fd5b5061047160048036038101908080359060200190929190505050610de7565b604051808273ffffffffffffffffffffffffffffffffffffffff1673ffffffffffffffffffffffffffffffffffffffff16815260200191505060405180910390f35b3480156104bf57600080fd5b506104f4600480360381019080803573ffffffffffffffffffffffffffffffffffffffff169060200190929190505050610e25565b005b34801561050257600080fd5b506105df600480360381019080803573ffffffffffffffffffffffffffffffffffffffff16906020019092919080356000191690602001909291908035600019169060200190929190803590602001908201803590602001908080601f0160208091040260200160405190810160405280939291908181526020018383808284378201915050505050509192919290803590602001908201803590602001908080601f0160208091040260200160405190810160405280939291908181526020018383808284378201915050505050509192919290505050610fbb565b604051808215151515815260200191505060405180910390f35b34801561060557600080fd5b5061060e61123e565b6040518082815260200191505060405180910390f35b34801561063057600080fd5b50610665600480360381019080803573ffffffffffffffffffffffffffffffffffffffff16906020019092919050505061125d565b6040518080602001828103825283818151815260200191508051906020019060200280838360005b838110156106a857808201518184015260208101905061068d565b505050509050019250505060405180910390f35b3480156106c857600080fd5b506106fd600480360381019080803573ffffffffffffffffffffffffffffffffffffffff1690602001909291905050506112fb565b604051808215151515815260200191505060405180910390f35b6000600260008373ffffffffffffffffffffffffffffffffffffffff1673ffffffffffffffffffffffffffffffffffffffff16815260200190815260200160002060009054906101000a900460ff169050919050565b6000809054906101000a900473ffffffffffffffffffffffffffffffffffffffff1673ffffffffffffffffffffffffffffffffffffffff163373ffffffffffffffffffffffffffffffffffffffff16141515610831576040517f08c379a00000000000000000000000000000000000000000000000000000000081526004018080602001828103825260178152602001807f6d73672073656e646572206973206e6f74206f776e657200000000000000000081525060200191505060405180910390fd5b600660009054906101000a900460ff1615600660006101000a81548160ff021916908315150217905550565b60008060006060806000806001028760001916141515156108e6576040517f08c379a000000000000000000000000000000000000000000000000000000000815260040180806020018281038252601a8152602001807f446f63756d656e742048617368206973206d616e6461746f727900000000000081525060200191505060405180910390fd5b600360008973ffffffffffffffffffffffffffffffffffffffff1673ffffffffffffffffffffffffffffffffffffffff1681526020019081526020016000206002016000886000191660001916815260200190815260200160002090508060000154816001015482600201548360030184600401818054600181600116156101000203166002900480601f0160208091040260200160405190810160405280929190818152602001828054600181600116156101000203166002900480156109ef5780601f106109c4576101008083540402835291602001916109ef565b820191906000526020600020905b8154815290600101906020018083116109d257829003601f168201915b50505050509150808054600181600116156101000203166002900480601f016020809104026020016040519081016040528092919081815260200182805460018160011615610100020316600290048015610a8b5780601f10610a6057610100808354040283529160200191610a8b565b820191906000526020600020905b815481529060010190602001808311610a6e57829003601f168201915b5050505050905095509550955095509550509295509295909350565b6000806000809054906101000a900473ffffffffffffffffffffffffffffffffffffffff1673ffffffffffffffffffffffffffffffffffffffff163373ffffffffffffffffffffffffffffffffffffffff16141515610b6e576040517f08c379a00000000000000000000000000000000000000000000000000000000081526004018080602001828103825260178152602001807f6d73672073656e646572206973206e6f74206f776e657200000000000000000081525060200191505060405180910390fd5b600660009054906101000a900460ff1615610be9573073ffffffffffffffffffffffffffffffffffffffff163190503373ffffffffffffffffffffffffffffffffffffffff166108fc829081150290604051600060405180830381858888f19350505050158015610be3573d6000803e3d6000fd5b50600191505b5090565b6000809054906101000a900473ffffffffffffffffffffffffffffffffffffffff1673ffffffffffffffffffffffffffffffffffffffff163373ffffffffffffffffffffffffffffffffffffffff16141515610cb1576040517f08c379a00000000000000000000000000000000000000000000000000000000081526004018080602001828103825260178152602001807f6d73672073656e646572206973206e6f74206f776e657200000000000000000081525060200191505060405180910390fd5b6000809054906101000a900473ffffffffffffffffffffffffffffffffffffffff1673ffffffffffffffffffffffffffffffffffffffff163373ffffffffffffffffffffffffffffffffffffffff16141515610d75576040517f08c379a000000000000000000000000000000000000000000000000000000000815260040180806020018281038252601b8152602001807f6d6573736167652073656e646572206973206e6f74206f776e6572000000000081525060200191505060405180910390fd5b6000809054906101000a900473ffffffffffffffffffffffffffffffffffffffff1673ffffffffffffffffffffffffffffffffffffffff16ff5b600660009054906101000a900460ff1681565b6000809054906101000a900473ffffffffffffffffffffffffffffffffffffffff1681565b600181815481101515610df657fe5b906000526020600020016000915054906101000a900473ffffffffffffffffffffffffffffffffffffffff1681565b6000809054906101000a900473ffffffffffffffffffffffffffffffffffffffff1673ffffffffffffffffffffffffffffffffffffffff163373ffffffffffffffffffffffffffffffffffffffff16141515610ee9576040517f08c379a00000000000000000000000000000000000000000000000000000000081526004018080602001828103825260178152602001807f6d73672073656e646572206973206e6f74206f776e657200000000000000000081525060200191505060405180910390fd5b60008173ffffffffffffffffffffffffffffffffffffffff1614151515610f78576040517f08c379a00000000000000000000000000000000000000000000000000000000081526004018080602001828103825260158152602001807f616464726573732063616e6e6f7420626520307830000000000000000000000081525060200191505060405180910390fd5b806000806101000a81548173ffffffffffffffffffffffffffffffffffffffff021916908373ffffffffffffffffffffffffffffffffffffffff16021790555050565b6000600660009054906101000a900460ff161515611235576000600102600360008873ffffffffffffffffffffffffffffffffffffffff1673ffffffffffffffffffffffffffffffffffffffff168152602001908152602001600020600201600087600019166000191681526020019081526020016000206000015460001916141561122f5733600360008873ffffffffffffffffffffffffffffffffffffffff1673ffffffffffffffffffffffffffffffffffffffff16815260200190815260200160002060000160006101000a81548173ffffffffffffffffffffffffffffffffffffffff021916908373ffffffffffffffffffffffffffffffffffffffff160217905550600360008773ffffffffffffffffffffffffffffffffffffffff1673ffffffffffffffffffffffffffffffffffffffff16815260200190815260200160002060010185908060018154018082558091505090600182039060005260206000200160009091929091909150906000191690555060a060405190810160405280866000191681526020018560001916815260200142815260200184815260200183815250600360008873ffffffffffffffffffffffffffffffffffffffff1673ffffffffffffffffffffffffffffffffffffffff1681526020019081526020016000206002016000876000191660001916815260200190815260200160002060008201518160000190600019169055602082015181600101906000191690556040820151816002015560608201518160030190805190602001906112059291906114eb565b5060808201518160040190805190602001906112229291906114eb565b5090505060019050611234565b600090505b5b95945050505050565b60003073ffffffffffffffffffffffffffffffffffffffff1631905090565b6060600360008373ffffffffffffffffffffffffffffffffffffffff1673ffffffffffffffffffffffffffffffffffffffff1681526020019081526020016000206001018054806020026020016040519081016040528092919081815260200182805480156112ef57602002820191906000526020600020905b815460001916815260200190600101908083116112d7575b50505050509050919050565b60008060009054906101000a900473ffffffffffffffffffffffffffffffffffffffff1673ffffffffffffffffffffffffffffffffffffffff163373ffffffffffffffffffffffffffffffffffffffff161415156113c1576040517f08c379a00000000000000000000000000000000000000000000000000000000081526004018080602001828103825260178152602001807f6d73672073656e646572206973206e6f74206f776e657200000000000000000081525060200191505060405180910390fd5b60001515600260008473ffffffffffffffffffffffffffffffffffffffff1673ffffffffffffffffffffffffffffffffffffffff16815260200190815260200160002060009054906101000a900460ff16151514156114e1576001600260008473ffffffffffffffffffffffffffffffffffffffff1673ffffffffffffffffffffffffffffffffffffffff16815260200190815260200160002060006101000a81548160ff02191690831515021790555060018290806001815401808255809150509060018203906000526020600020016000909192909190916101000a81548173ffffffffffffffffffffffffffffffffffffffff021916908373ffffffffffffffffffffffffffffffffffffffff16021790555050600190506114e6565b600090505b919050565b828054600181600116156101000203166002900490600052602060002090601f016020900481019282601f1061152c57805160ff191683800117855561155a565b8280016001018555821561155a579182015b8281111561155957825182559160200191906001019061153e565b5b509050611567919061156b565b5090565b61158d91905b80821115611589576000816000905550600101611571565b5090565b905600a165627a7a723058202cf35c868fb37c4cbc251c87b7c12ae1df7a0981c54ad8e39c1b2216e31975950029",
  "source": "pragma solidity ^0.4.22;\r\n\r\nimport './Mortal.sol';\r\n\r\n// Data is separated from the logic to implement upgradable design pattern\r\n// The only purpose of this contract is to store and retrieve data.\r\n/** @title ProofDB contract manages the data for this entire application. */\r\ncontract ProofDB  is Mortal {\r\n    \r\n    //Document idenfiers is a structure which sotres the documented related information\r\n    struct Document {\r\n        bytes32 docHash;\r\n        bytes32 userName;\r\n        uint docTimestamp;\r\n        bytes ipfsHash;\r\n        bytes docTags;\r\n    }\r\n\r\n    //To keep track of all the documents owned by a user\r\n    struct User {\r\n        address addr;\r\n        bytes32[] documentList;\r\n        mapping(bytes32 => Document) documentDetails;\r\n    }\r\n\r\n    //Maintain user usage count to implement throtlling\r\n    struct UserUsageCount {\r\n        uint uploadTime;\r\n        uint count;\r\n    }\r\n    \r\n    // List of state variables\r\n    address[] public allowedContractsKeys;\r\n    mapping(address => bool) allowedContracts;\r\n    mapping( address => User )  users;\r\n    mapping( address => bool )  admins;\r\n    mapping( bytes32 => Document )  documents;\r\n    bool public stopped = false;\r\n    \r\n    //Events for logging\r\n    event LogFallback(address _senderaddr,uint _value);\r\n\r\n    //Modifiers\r\n    modifier stopInEmergency {if (!stopped) _;}\r\n    modifier onlyInEmergency {if (stopped) _;}\r\n\r\n     //Circuit Breaker to pause the contract in case of Emergency\r\n    function toggleContractActive() public \r\n    onlyOwner {\r\n        stopped = !stopped;\r\n    }\r\n    \r\n    // modified to restric access to allowed users and contracts\r\n    modifier onlyAllowedContractOrOwner {\r\n        require (allowedContracts[msg.sender] != true && msg.sender != owner,\"Should be a owner\");\r\n        _;\r\n    }\r\n\r\n    /** @dev addAllowedContractOrOwner. function to add allowed contracts or owners to the list.\r\n        * The list of users have the previliges to execute methods that make changes to the state of this ProofDB.\r\n        * @param _addr address of contract or user.\r\n        * @return status true/false.\r\n        */\r\n    function addAllowedContractOrOwner(address _addr)\r\n    public\r\n    onlyOwner \r\n    returns(bool) {\r\n        if( allowedContracts[_addr] == false ) {\r\n            allowedContracts[_addr] = true;\r\n            allowedContractsKeys.push(_addr);\r\n            return true;\r\n        }\r\n        return false;\r\n    }\r\n\r\n    /** @dev isAllowedContractOrOwner. This function determines of an address is allowed to  make change to the state of ProofDB contract.\r\n        * The list of users have the previliges to execute methods that make changes to the state of this ProofDB.\r\n        * @param _addr address of contract or user.\r\n        * @return status true/false.\r\n        */\r\n    function isAllowedContractOrOwner(address _addr)\r\n    public\r\n    view \r\n    returns(bool) {\r\n        return allowedContracts[_addr];\r\n    }\r\n    \r\n    /** @dev addDocument. This function adds a document to the data store. \r\n        * documents are maintained for each user. An array inside user struct contains all the document the user uploaded so far.\r\n        * document struct contains the document details\r\n        * @param caller documentId.\r\n        * @param _docHash documentId.\r\n        * @param _userName name of the owner.\r\n        * @param _ipfsHash hash of the document returned by IPFS.\r\n        * @param _docTags additional tags.\r\n        * @return status true/false.\r\n        */\r\n    function addDocument(address caller, bytes32 _docHash, bytes32 _userName, bytes _ipfsHash,bytes _docTags) \r\n    public\r\n    stopInEmergency\r\n    returns(bool) {\r\n        if(users[caller].documentDetails[_docHash].docHash == 0x0 ){\r\n            users[caller].addr = msg.sender;\r\n            users[caller].documentList.push(_docHash);\r\n            users[caller].documentDetails[_docHash] = Document(_docHash, _userName,block.timestamp,_ipfsHash,_docTags);\r\n            return true;\r\n        }\r\n        return false;\r\n    }\r\n    \r\n    /** @dev getDocument. Returns details of a single document. address and  docHash are used to  look up a particular document.\r\n        * @param caller user address.\r\n        * @param _docHash unique documentId.\r\n        * @return docHash unique documentId.\r\n        * @return userName onwer name.\r\n        * @return docTimestamp document registered timestamp.\r\n        * @return ipfsHash hash of the document returned by IPFS.\r\n        * @return docTags additional tags describing the document uploaded.\r\n        */\r\n    function getDocument(address caller,bytes32 _docHash) \r\n    public \r\n    view \r\n    returns(bytes32, bytes32, uint, bytes,bytes){\r\n        require(_docHash != 0x0, \"Document Hash is mandatory\");\r\n        Document storage document = users[caller].documentDetails[_docHash];\r\n        return(document.docHash,document.userName,document.docTimestamp,document.ipfsHash,document.docTags);\r\n    }\r\n    \r\n    /** @dev fetchAllDocuments. Returns all the documents that belong to the sender. \r\n        * @return documentList list of document addresses.\r\n        */\r\n    function fetchAllDocuments(address caller) \r\n    public \r\n    view \r\n    returns(bytes32[]){\r\n        return users[caller].documentList;\r\n    }\r\n    \r\n    /** @dev checkBalance. Checks the ether balance of the contract account. \r\n        * @return balance contract ether balance.\r\n        */\r\n    function checkBalance() public view returns(uint){\r\n        return address(this).balance;\r\n    }\r\n    \r\n    /** @dev withdrawFunds. Allows the owner to withdraw ether balance the contract account. \r\n        * pull over push for external calls.\r\n        * @return status true/false.\r\n        */\r\n    function withdrawFunds() public \r\n    onlyOwner \r\n    onlyInEmergency\r\n    returns(bool){\r\n        uint balance = address(this).balance;\r\n        msg.sender.transfer(balance);\r\n        return true;\r\n    }\r\n\r\n    // Fallback method to prevet calls to with data and unknown functions to the contract.\r\n    // This function is invoked when a call is made to the contrat with no matching function signature. \r\n    function () public payable {\r\n        require(msg.data.length == 0,\"Message Length is not zero\");\r\n        emit LogFallback(msg.sender,msg.value);\r\n    }\r\n\r\n}   \r\n",
  "sourcePath": "C:\\Users\\santo\\Documents\\git\\proof-of-existence-dapp\\contracts\\ProofDB.sol",
  "compiler": {
    "name": "solc",
    "version": "0.4.24+commit.e67f0147.Emscripten.clang"
  },
  "schemaVersion": "2.0.1",
  "updatedAt": "2018-08-27T04:32:10.635Z"
}