{
  "contractName": "Proof",
  "abi": [
    {
      "constant": true,
      "inputs": [],
      "name": "storageDb",
      "outputs": [
        {
          "name": "",
          "type": "address"
        }
      ],
      "payable": false,
      "stateMutability": "view",
      "type": "function"
    },
    {
      "constant": false,
      "inputs": [],
      "name": "kill",
      "outputs": [],
      "payable": false,
      "stateMutability": "nonpayable",
      "type": "function"
    },
    {
      "constant": true,
      "inputs": [],
      "name": "stopped",
      "outputs": [
        {
          "name": "",
          "type": "bool"
        }
      ],
      "payable": false,
      "stateMutability": "view",
      "type": "function"
    },
    {
      "constant": true,
      "inputs": [],
      "name": "documentLimit",
      "outputs": [
        {
          "name": "",
          "type": "uint256"
        }
      ],
      "payable": false,
      "stateMutability": "view",
      "type": "function"
    },
    {
      "constant": true,
      "inputs": [],
      "name": "owner",
      "outputs": [
        {
          "name": "",
          "type": "address"
        }
      ],
      "payable": false,
      "stateMutability": "view",
      "type": "function"
    },
    {
      "constant": false,
      "inputs": [
        {
          "name": "_newOwner",
          "type": "address"
        }
      ],
      "name": "changeOwner",
      "outputs": [],
      "payable": false,
      "stateMutability": "nonpayable",
      "type": "function"
    },
    {
      "constant": true,
      "inputs": [],
      "name": "documentUploadPeriod",
      "outputs": [
        {
          "name": "",
          "type": "uint256"
        }
      ],
      "payable": false,
      "stateMutability": "view",
      "type": "function"
    },
    {
      "inputs": [
        {
          "name": "_storageDb",
          "type": "address"
        }
      ],
      "payable": false,
      "stateMutability": "nonpayable",
      "type": "constructor"
    },
    {
      "payable": true,
      "stateMutability": "payable",
      "type": "fallback"
    },
    {
      "anonymous": false,
      "inputs": [
        {
          "indexed": false,
          "name": "_addr",
          "type": "address"
        },
        {
          "indexed": false,
          "name": "_userName",
          "type": "bytes32"
        },
        {
          "indexed": false,
          "name": "_dochash",
          "type": "bytes32"
        },
        {
          "indexed": false,
          "name": "_docTimestamp",
          "type": "uint256"
        },
        {
          "indexed": false,
          "name": "_ipfsHash",
          "type": "bytes"
        },
        {
          "indexed": false,
          "name": "_notes",
          "type": "string"
        }
      ],
      "name": "LogUploadDocument",
      "type": "event"
    },
    {
      "anonymous": false,
      "inputs": [
        {
          "indexed": false,
          "name": "_senderaddr",
          "type": "address"
        },
        {
          "indexed": false,
          "name": "_value",
          "type": "uint256"
        }
      ],
      "name": "LogFallback",
      "type": "event"
    },
    {
      "constant": false,
      "inputs": [
        {
          "name": "_storageDb",
          "type": "address"
        }
      ],
      "name": "setStorageDB",
      "outputs": [
        {
          "name": "",
          "type": "bool"
        }
      ],
      "payable": false,
      "stateMutability": "nonpayable",
      "type": "function"
    },
    {
      "constant": false,
      "inputs": [],
      "name": "toggleContractActive",
      "outputs": [],
      "payable": false,
      "stateMutability": "nonpayable",
      "type": "function"
    },
    {
      "constant": false,
      "inputs": [
        {
          "name": "_docHash",
          "type": "bytes32"
        },
        {
          "name": "_userName",
          "type": "bytes32"
        },
        {
          "name": "_ipfsHash",
          "type": "bytes"
        },
        {
          "name": "_docTags",
          "type": "bytes"
        }
      ],
      "name": "uploadDocument",
      "outputs": [
        {
          "name": "",
          "type": "bool"
        }
      ],
      "payable": false,
      "stateMutability": "nonpayable",
      "type": "function"
    },
    {
      "constant": true,
      "inputs": [
        {
          "name": "_docHash",
          "type": "bytes32"
        }
      ],
      "name": "fetchDocument",
      "outputs": [
        {
          "name": "",
          "type": "bytes32"
        },
        {
          "name": "",
          "type": "bytes32"
        },
        {
          "name": "",
          "type": "uint256"
        },
        {
          "name": "",
          "type": "bytes"
        },
        {
          "name": "",
          "type": "bytes"
        }
      ],
      "payable": false,
      "stateMutability": "view",
      "type": "function"
    },
    {
      "constant": true,
      "inputs": [],
      "name": "fetchAllDocuments",
      "outputs": [
        {
          "name": "",
          "type": "bytes32[]"
        }
      ],
      "payable": false,
      "stateMutability": "view",
      "type": "function"
    },
    {
      "constant": true,
      "inputs": [],
      "name": "checkBalance",
      "outputs": [
        {
          "name": "",
          "type": "uint256"
        }
      ],
      "payable": false,
      "stateMutability": "view",
      "type": "function"
    },
    {
      "constant": false,
      "inputs": [],
      "name": "withdrawFunds",
      "outputs": [
        {
          "name": "",
          "type": "bool"
        }
      ],
      "payable": false,
      "stateMutability": "nonpayable",
      "type": "function"
    },
    {
      "constant": true,
      "inputs": [],
      "name": "greet",
      "outputs": [
        {
          "name": "",
          "type": "string"
        }
      ],
      "payable": false,
      "stateMutability": "pure",
      "type": "function"
    }
  ],
  "bytecode": "0x608060405260b460035560036004556000600560006101000a81548160ff02191690831515021790555034801561003557600080fd5b50604051602080611ec383398101806040528101908080519060200190929190505050336000806101000a81548173ffffffffffffffffffffffffffffffffffffffff021916908373ffffffffffffffffffffffffffffffffffffffff160217905550336000806101000a81548173ffffffffffffffffffffffffffffffffffffffff021916908373ffffffffffffffffffffffffffffffffffffffff16021790555080600160006101000a81548173ffffffffffffffffffffffffffffffffffffffff021916908373ffffffffffffffffffffffffffffffffffffffff16021790555050611d9a806101296000396000f3006080604052600436106100db576000357c0100000000000000000000000000000000000000000000000000000000900463ffffffff1680631385d24c146101c3578063153b9671146101da578063190e1cb0146102bd5780631bcf5cb31461032957806324600fc31461038057806341c0e1b5146103af578063515cfd2e146103c657806375f12b211461050157806388ff53a6146105305780638da5cb5b1461055b578063a6f9dae1146105b2578063c3ca364d146105f5578063c71daccb14610650578063ce119b4d1461067b578063cfae3217146106a6575b600080369050141515610156576040517f08c379a000000000000000000000000000000000000000000000000000000000815260040180806020018281038252601a8152602001807f4d657373616765204c656e677468206973206e6f74207a65726f00000000000081525060200191505060405180910390fd5b7fc04e16d4878a87a7d627a5fb8c387ac4a2169e45f86d1935cc739c196c8a57153334604051808373ffffffffffffffffffffffffffffffffffffffff1673ffffffffffffffffffffffffffffffffffffffff1681526020018281526020019250505060405180910390a1005b3480156101cf57600080fd5b506101d8610736565b005b3480156101e657600080fd5b506102a360048036038101908080356000191690602001909291908035600019169060200190929190803590602001908201803590602001908080601f0160208091040260200160405190810160405280939291908181526020018383808284378201915050505050509192919290803590602001908201803590602001908080601f0160208091040260200160405190810160405280939291908181526020018383808284378201915050505050509192919290505050610826565b604051808215151515815260200191505060405180910390f35b3480156102c957600080fd5b506102d261134b565b6040518080602001828103825283818151815260200191508051906020019060200280838360005b838110156103155780820151818401526020810190506102fa565b505050509050019250505060405180910390f35b34801561033557600080fd5b5061033e6114ac565b604051808273ffffffffffffffffffffffffffffffffffffffff1673ffffffffffffffffffffffffffffffffffffffff16815260200191505060405180910390f35b34801561038c57600080fd5b506103956114d2565b604051808215151515815260200191505060405180910390f35b3480156103bb57600080fd5b506103c4611618565b005b3480156103d257600080fd5b506103f560048036038101908080356000191690602001909291905050506117da565b60405180866000191660001916815260200185600019166000191681526020018481526020018060200180602001838103835285818151815260200191508051906020019080838360005b8381101561045b578082015181840152602081019050610440565b50505050905090810190601f1680156104885780820380516001836020036101000a031916815260200191505b50838103825284818151815260200191508051906020019080838360005b838110156104c15780820151818401526020810190506104a6565b50505050905090810190601f1680156104ee5780820380516001836020036101000a031916815260200191505b5097505050505050505060405180910390f35b34801561050d57600080fd5b50610516611a6b565b604051808215151515815260200191505060405180910390f35b34801561053c57600080fd5b50610545611a7e565b6040518082815260200191505060405180910390f35b34801561056757600080fd5b50610570611a84565b604051808273ffffffffffffffffffffffffffffffffffffffff1673ffffffffffffffffffffffffffffffffffffffff16815260200191505060405180910390f35b3480156105be57600080fd5b506105f3600480360381019080803573ffffffffffffffffffffffffffffffffffffffff169060200190929190505050611aa9565b005b34801561060157600080fd5b50610636600480360381019080803573ffffffffffffffffffffffffffffffffffffffff169060200190929190505050611c3f565b604051808215151515815260200191505060405180910390f35b34801561065c57600080fd5b50610665611c8b565b6040518082815260200191505060405180910390f35b34801561068757600080fd5b50610690611caa565b6040518082815260200191505060405180910390f35b3480156106b257600080fd5b506106bb611cb0565b6040518080602001828103825283818151815260200191508051906020019080838360005b838110156106fb5780820151818401526020810190506106e0565b50505050905090810190601f1680156107285780820380516001836020036101000a031916815260200191505b509250505060405180910390f35b6000809054906101000a900473ffffffffffffffffffffffffffffffffffffffff1673ffffffffffffffffffffffffffffffffffffffff163373ffffffffffffffffffffffffffffffffffffffff161415156107fa576040517f08c379a00000000000000000000000000000000000000000000000000000000081526004018080602001828103825260178152602001807f6d73672073656e646572206973206e6f74206f776e657200000000000000000081525060200191505060405180910390fd5b600560009054906101000a900460ff1615600560006101000a81548160ff021916908315150217905550565b600080600080600560009054906101000a900460ff1615156113405760006001028860001916141515156108e8576040517f08c379a000000000000000000000000000000000000000000000000000000000815260040180806020018281038252602a8152602001807f446f63756d656e742068617368206973206d616e6461746f727920697420636181526020017f6e2774206265203078300000000000000000000000000000000000000000000081525060400191505060405180910390fd5b60208060ff1611151515610964576040517f08c379a000000000000000000000000000000000000000000000000000000000815260040180806020018281038252601e8152602001807f757365724e616d652073686f756c64206265203c3d203332206279746573000081525060200191505060405180910390fd5b60408651111515156109de576040517f08c379a000000000000000000000000000000000000000000000000000000000815260040180806020018281038252601e8152602001807f69706673486173682073686f756c64206265203c3d203634206279746573000081525060200191505060405180910390fd5b6020855111151515610a58576040517f08c379a000000000000000000000000000000000000000000000000000000000815260040180806020018281038252601d8152602001807f646f63546167732073686f756c64206265203c3d20333220627974657300000081525060200191505060405180910390fd5b600160009054906101000a900473ffffffffffffffffffffffffffffffffffffffff169150610a8633611ced565b905060016002811115610a9557fe5b816002811115610aa157fe5b1415610e3e5742600260003373ffffffffffffffffffffffffffffffffffffffff1673ffffffffffffffffffffffffffffffffffffffff168152602001908152602001600020600001819055506001600260003373ffffffffffffffffffffffffffffffffffffffff1673ffffffffffffffffffffffffffffffffffffffff168152602001908152602001600020600101819055508173ffffffffffffffffffffffffffffffffffffffff1663b4659ad5338a8a8a8a6040518663ffffffff167c0100000000000000000000000000000000000000000000000000000000028152600401808673ffffffffffffffffffffffffffffffffffffffff1673ffffffffffffffffffffffffffffffffffffffff168152602001856000191660001916815260200184600019166000191681526020018060200180602001838103835285818151815260200191508051906020019080838360005b83811015610c14578082015181840152602081019050610bf9565b50505050905090810190601f168015610c415780820380516001836020036101000a031916815260200191505b50838103825284818151815260200191508051906020019080838360005b83811015610c7a578082015181840152602081019050610c5f565b50505050905090810190601f168015610ca75780820380516001836020036101000a031916815260200191505b50975050505050505050602060405180830381600087803b158015610ccb57600080fd5b505af1158015610cdf573d6000803e3d6000fd5b505050506040513d6020811015610cf557600080fd5b810190808051906020019092919050505092507f5983240680e588a5959ee1501a6f1609b70c564902ed6c60470c83897dd78e4833888a428a604051808673ffffffffffffffffffffffffffffffffffffffff1673ffffffffffffffffffffffffffffffffffffffff168152602001856000191660001916815260200184600019166000191681526020018381526020018060200180602001838103835284818151815260200191508051906020019080838360005b83811015610dc6578082015181840152602081019050610dab565b50505050905090810190601f168015610df35780820380516001836020036101000a031916815260200191505b50838103825260208152602001807f75706c6f61646564202d207468726f746c696e6720636f756e7420726573657481525060200197505050505050505060405180910390a161133b565b60006002811115610e4b57fe5b816002811115610e5757fe5b14156111b6576001600260003373ffffffffffffffffffffffffffffffffffffffff1673ffffffffffffffffffffffffffffffffffffffff168152602001908152602001600020600101600082825401925050819055508173ffffffffffffffffffffffffffffffffffffffff1663b4659ad5338a8a8a8a6040518663ffffffff167c0100000000000000000000000000000000000000000000000000000000028152600401808673ffffffffffffffffffffffffffffffffffffffff1673ffffffffffffffffffffffffffffffffffffffff168152602001856000191660001916815260200184600019166000191681526020018060200180602001838103835285818151815260200191508051906020019080838360005b83811015610f8c578082015181840152602081019050610f71565b50505050905090810190601f168015610fb95780820380516001836020036101000a031916815260200191505b50838103825284818151815260200191508051906020019080838360005b83811015610ff2578082015181840152602081019050610fd7565b50505050905090810190601f16801561101f5780820380516001836020036101000a031916815260200191505b50975050505050505050602060405180830381600087803b15801561104357600080fd5b505af1158015611057573d6000803e3d6000fd5b505050506040513d602081101561106d57600080fd5b810190808051906020019092919050505092507f5983240680e588a5959ee1501a6f1609b70c564902ed6c60470c83897dd78e4833888a428a604051808673ffffffffffffffffffffffffffffffffffffffff1673ffffffffffffffffffffffffffffffffffffffff168152602001856000191660001916815260200184600019166000191681526020018381526020018060200180602001838103835284818151815260200191508051906020019080838360005b8381101561113e578082015181840152602081019050611123565b50505050905090810190601f16801561116b5780820380516001836020036101000a031916815260200191505b50838103825260068152602001807f75706c6f6164000000000000000000000000000000000000000000000000000081525060200197505050505050505060405180910390a161133a565b6002808111156111c257fe5b8160028111156111ce57fe5b1415611330577f5983240680e588a5959ee1501a6f1609b70c564902ed6c60470c83897dd78e4833888a428a604051808673ffffffffffffffffffffffffffffffffffffffff1673ffffffffffffffffffffffffffffffffffffffff168152602001856000191660001916815260200184600019166000191681526020018381526020018060200180602001838103835284818151815260200191508051906020019080838360005b83811015611292578082015181840152602081019050611277565b50505050905090810190601f1680156112bf5780820380516001836020036101000a031916815260200191505b50838103825260288152602001807f75706c6f6164206661696c6564202d207468726f746c696e67206c696d69742081526020017f657863656564656400000000000000000000000000000000000000000000000081525060400197505050505050505060405180910390a1611339565b6000935061133f565b5b5b8293505b5b505050949350505050565b606060006060600160009054906101000a900473ffffffffffffffffffffffffffffffffffffffff1691508173ffffffffffffffffffffffffffffffffffffffff1663cf6dbb87336040518263ffffffff167c0100000000000000000000000000000000000000000000000000000000028152600401808273ffffffffffffffffffffffffffffffffffffffff1673ffffffffffffffffffffffffffffffffffffffff168152602001915050600060405180830381600087803b15801561141157600080fd5b505af1158015611425573d6000803e3d6000fd5b505050506040513d6000823e3d601f19601f82011682018060405250602081101561144f57600080fd5b81019080805164010000000081111561146757600080fd5b8281019050602081018481111561147d57600080fd5b815185602082028301116401000000008211171561149a57600080fd5b50509291905050509050809250505090565b600160009054906101000a900473ffffffffffffffffffffffffffffffffffffffff1681565b6000806000809054906101000a900473ffffffffffffffffffffffffffffffffffffffff1673ffffffffffffffffffffffffffffffffffffffff163373ffffffffffffffffffffffffffffffffffffffff16141515611599576040517f08c379a00000000000000000000000000000000000000000000000000000000081526004018080602001828103825260178152602001807f6d73672073656e646572206973206e6f74206f776e657200000000000000000081525060200191505060405180910390fd5b600560009054906101000a900460ff1615611614573073ffffffffffffffffffffffffffffffffffffffff163190503373ffffffffffffffffffffffffffffffffffffffff166108fc829081150290604051600060405180830381858888f1935050505015801561160e573d6000803e3d6000fd5b50600191505b5090565b6000809054906101000a900473ffffffffffffffffffffffffffffffffffffffff1673ffffffffffffffffffffffffffffffffffffffff163373ffffffffffffffffffffffffffffffffffffffff161415156116dc576040517f08c379a00000000000000000000000000000000000000000000000000000000081526004018080602001828103825260178152602001807f6d73672073656e646572206973206e6f74206f776e657200000000000000000081525060200191505060405180910390fd5b6000809054906101000a900473ffffffffffffffffffffffffffffffffffffffff1673ffffffffffffffffffffffffffffffffffffffff163373ffffffffffffffffffffffffffffffffffffffff161415156117a0576040517f08c379a000000000000000000000000000000000000000000000000000000000815260040180806020018281038252601b8152602001807f6d6573736167652073656e646572206973206e6f74206f776e6572000000000081525060200191505060405180910390fd5b6000809054906101000a900473ffffffffffffffffffffffffffffffffffffffff1673ffffffffffffffffffffffffffffffffffffffff16ff5b600080600060608060008060008060608060006001028c600019161415151561186b576040517f08c379a000000000000000000000000000000000000000000000000000000000815260040180806020018281038252601a8152602001807f446f63756d656e742048617368206973206d616e6461746f727900000000000081525060200191505060405180910390fd5b600160009054906101000a900473ffffffffffffffffffffffffffffffffffffffff1695508573ffffffffffffffffffffffffffffffffffffffff16631dc458c1338e6040518363ffffffff167c0100000000000000000000000000000000000000000000000000000000028152600401808373ffffffffffffffffffffffffffffffffffffffff1673ffffffffffffffffffffffffffffffffffffffff168152602001826000191660001916815260200192505050600060405180830381600087803b15801561193b57600080fd5b505af115801561194f573d6000803e3d6000fd5b505050506040513d6000823e3d601f19601f8201168201806040525060a081101561197957600080fd5b8101908080519060200190929190805190602001909291908051906020019092919080516401000000008111156119af57600080fd5b828101905060208101848111156119c557600080fd5b81518560018202830111640100000000821117156119e257600080fd5b505092919060200180516401000000008111156119fe57600080fd5b82810190506020810184811115611a1457600080fd5b8151856001820283011164010000000082111715611a3157600080fd5b5050929190505050809550819650829750839850849950505050505084848484849a509a509a509a509a5050505050505091939590929450565b600560009054906101000a900460ff1681565b60045481565b6000809054906101000a900473ffffffffffffffffffffffffffffffffffffffff1681565b6000809054906101000a900473ffffffffffffffffffffffffffffffffffffffff1673ffffffffffffffffffffffffffffffffffffffff163373ffffffffffffffffffffffffffffffffffffffff16141515611b6d576040517f08c379a00000000000000000000000000000000000000000000000000000000081526004018080602001828103825260178152602001807f6d73672073656e646572206973206e6f74206f776e657200000000000000000081525060200191505060405180910390fd5b60008173ffffffffffffffffffffffffffffffffffffffff1614151515611bfc576040517f08c379a00000000000000000000000000000000000000000000000000000000081526004018080602001828103825260158152602001807f616464726573732063616e6e6f7420626520307830000000000000000000000081525060200191505060405180910390fd5b806000806101000a81548173ffffffffffffffffffffffffffffffffffffffff021916908373ffffffffffffffffffffffffffffffffffffffff16021790555050565b600081600160006101000a81548173ffffffffffffffffffffffffffffffffffffffff021916908373ffffffffffffffffffffffffffffffffffffffff16021790555060019050919050565b60003073ffffffffffffffffffffffffffffffffffffffff1631905090565b60035481565b60606040805190810160405280601981526020017f48656c6c6f2c2054657374204772656574204d65737361676500000000000000815250905090565b600080600260008473ffffffffffffffffffffffffffffffffffffffff1673ffffffffffffffffffffffffffffffffffffffff168152602001908152602001600020905060035481600001540142101515611d4b5760019150611d68565b6004548160010154101515611d635760029150611d68565b600091505b509190505600a165627a7a723058200b1b8c701086daf5cf044f7d4ecb3b0ce6f92c6ef89742a753c2c27c194ecf470029",
  "source": "pragma solidity ^0.4.22;\r\n\r\nimport './Mortal.sol';\r\nimport './ProofDB.sol';\r\n\r\ncontract Proof is Mortal{\r\n    \r\n    address public storageDb;\r\n    mapping(address => UserUsageCount) userUsage;\r\n    uint public documentUploadPeriod = 180 seconds;\r\n    uint public documentLimit = 3;\r\n    bool public stopped = false;\r\n\r\n    //Document upload actions. To be used for user throtling\r\n    enum UploadChoices { UPLOAD_CNT_INCR, UPLOAD_CNT_RESET, UPLOAD_NO }\r\n    UploadChoices uploadChoice;\r\n    UploadChoices constant defaultUploadChoice = UploadChoices.UPLOAD_NO;\r\n\r\n    //Document idenfiers alongwith ipfs has of the document\r\n    struct Document {\r\n        bytes32 docHash;\r\n        uint docTimestamp;\r\n        string ipfsHash;\r\n    }\r\n\r\n    //Maintain user usage count to implement throtlling\r\n    struct UserUsageCount {\r\n        uint uploadTime;\r\n        uint count;\r\n    }\r\n\r\n    // Constructor initiated with the storage contract address.\r\n    constructor(address _storageDb) public {\r\n        owner = msg.sender;\r\n        storageDb = _storageDb;\r\n    }\r\n\r\n    // Change the storage contract address. only owner can change the storage contract address.\r\n    function setStorageDB(address _storageDb) public returns(bool){\r\n        storageDb = _storageDb;\r\n        return true;\r\n    }\r\n\r\n    //Events for logging\r\n    event LogUploadDocument(address _addr,bytes32 _userName, bytes32 _dochash, uint _docTimestamp, bytes _ipfsHash, string _notes);\r\n    event LogFallback(address _senderaddr,uint _value);\r\n\r\n    //Modifiers\r\n    modifier stopInEmergency {if (!stopped) _;}\r\n    modifier onlyInEmergency {if (stopped) _;}\r\n    \r\n    //Circuit Breaker to pause the contract in case of Emergency\r\n    function toggleContractActive() public \r\n    onlyOwner {\r\n        stopped = !stopped;\r\n    }\r\n\r\n    // function to upload the document. It stores the data in storage contract.\r\n    function uploadDocument(bytes32 _docHash, bytes32 _userName, bytes _ipfsHash,bytes _docTags) \r\n    public\r\n    stopInEmergency \r\n    returns(bool) {\r\n        //UserUsageCount storage userUploadStats = userUsage[msg.sender];\r\n        //UploadChoices choice = verifyRateLimit(msg.sender);\r\n        \r\n        require(_docHash != 0x0,\"Document hash is mandatory it can't be 0x0\");\r\n        require(_userName.length <= 32,\"userName should be <= 32 bytes\");\r\n        require(_ipfsHash.length <= 64,\"ipfsHash should be <= 64 bytes\");\r\n        require(_docTags.length <= 32,\"docTags should be <= 32 bytes\");\r\n        \r\n        bool status;\r\n        ProofDB proofDB = ProofDB(storageDb);\r\n        UploadChoices choice = verifyRateLimit(msg.sender);\r\n\r\n        if (choice == UploadChoices.UPLOAD_CNT_RESET) {\r\n            userUsage[msg.sender].uploadTime = now;\r\n            userUsage[msg.sender].count = 1;\r\n            status = proofDB.addDocument(msg.sender,_docHash,_userName,_ipfsHash,_docTags);\r\n            //Log document upload event\r\n            emit LogUploadDocument(msg.sender, _userName,_docHash, block.timestamp,_ipfsHash,\"uploaded - throtling count reset\");\r\n        } else if (choice == UploadChoices.UPLOAD_CNT_INCR) {\r\n            userUsage[msg.sender].count += 1;\r\n            status = proofDB.addDocument(msg.sender,_docHash,_userName,_ipfsHash,_docTags);\r\n            //Log document upload event\r\n            emit LogUploadDocument(msg.sender, _userName,_docHash,block.timestamp,_ipfsHash,\"upload\");\r\n        } else if (choice == UploadChoices.UPLOAD_NO){\r\n            emit LogUploadDocument(msg.sender, _userName,_docHash,block.timestamp,_ipfsHash,\"upload failed - throtling limit exceeded\");\r\n        } else {\r\n            return false;\r\n        }\r\n        return status;\r\n    }\r\n    \r\n    //verify whether user exceeded rate limit assigned\r\n    //function verifyRateLimit(address _addr, UserUsageCount _userUploadStats)\r\n    function verifyRateLimit(address _addr)\r\n    private\r\n    view\r\n    returns(UploadChoices) {\r\n        //Do not like the duplication here, but get a compilation error if I pass it to this function\r\n        UserUsageCount storage _userUploadStats = userUsage[_addr];\r\n        if(block.timestamp >= _userUploadStats.uploadTime + documentUploadPeriod){\r\n            return UploadChoices.UPLOAD_CNT_RESET;\r\n        } else {\r\n            if(_userUploadStats.count >= documentLimit){\r\n                return UploadChoices.UPLOAD_NO;\r\n            }else{\r\n                return UploadChoices.UPLOAD_CNT_INCR;\r\n            }\r\n        }\r\n        return defaultUploadChoice;\r\n    }\r\n\r\n    // function to retrieve the document details.\r\n    function fetchDocument(bytes32 _docHash) \r\n    public \r\n    view \r\n    returns(bytes32,bytes32,uint,bytes,bytes) {\r\n        \r\n        require(_docHash != 0x0, \"Document Hash is mandatory\");\r\n        ProofDB proofDB = ProofDB(storageDb);\r\n        bytes32 docHash;\r\n        bytes32 userName;\r\n        uint docTimestamp;\r\n        bytes memory ipfsHash;\r\n        bytes memory docTags;\r\n        (docHash,userName,docTimestamp,ipfsHash,docTags) = proofDB.getDocument(msg.sender,_docHash);\r\n        return(docHash,userName,docTimestamp,ipfsHash,docTags);\r\n    }\r\n\r\n    // function to retrieve all the document of the user\r\n    function fetchAllDocuments() \r\n    public \r\n    view \r\n    returns(bytes32[]){\r\n        ProofDB proofDB = ProofDB(storageDb);\r\n        bytes32[] memory docHashList = proofDB.fetchAllDocuments(msg.sender);\r\n        return docHashList;\r\n    }\r\n\r\n    // function to check the balance in the contract\r\n    function checkBalance() public view returns(uint){\r\n        return address(this).balance;\r\n    }\r\n\r\n    // this method will allow the owner to withdraw funds sent to the contract account.\r\n    // pull over push for external calls\r\n    function withdrawFunds() public \r\n    onlyOwner \r\n    onlyInEmergency\r\n    returns(bool){\r\n        uint balance = address(this).balance;\r\n        msg.sender.transfer(balance);\r\n        return true;\r\n    }\r\n\r\n    // Fallback method to prevet calls to with data and unknown functions to the contract.\r\n    // This function is invoked when a call is made to the contrat with no matching function signature. \r\n    function () public payable {\r\n        require(msg.data.length == 0,\"Message Length is not zero\");\r\n        emit LogFallback(msg.sender,msg.value);\r\n    }\r\n\r\n    function greet() external pure returns(string){\r\n        return \"Hello, Test Greet Message\"; \r\n    }\r\n\r\n}\r\n",
  "sourcePath": "C:\\Users\\santo\\Documents\\git\\proof-of-existence-dapp\\contracts\\Proof.sol",
  "compiler": {
    "name": "solc",
    "version": "0.4.24+commit.e67f0147.Emscripten.clang"
  },
  "schemaVersion": "2.0.1",
  "updatedAt": "2018-08-26T04:23:16.566Z"
}